{
  "contractName": "Consumer",
  "abi": [
    {
      "inputs": [],
      "payable": false,
      "stateMutability": "nonpayable",
      "type": "constructor"
    },
    {
      "anonymous": false,
      "inputs": [],
      "name": "added",
      "type": "event"
    },
    {
      "anonymous": false,
      "inputs": [],
      "name": "removed",
      "type": "event"
    },
    {
      "constant": true,
      "inputs": [
        {
          "name": "account",
          "type": "address"
        }
      ],
      "name": "isConsumer",
      "outputs": [
        {
          "name": "",
          "type": "bool"
        }
      ],
      "payable": false,
      "stateMutability": "view",
      "type": "function"
    },
    {
      "constant": false,
      "inputs": [
        {
          "name": "account",
          "type": "address"
        }
      ],
      "name": "addConsumer",
      "outputs": [],
      "payable": false,
      "stateMutability": "nonpayable",
      "type": "function"
    },
    {
      "constant": false,
      "inputs": [],
      "name": "renounceConsumer",
      "outputs": [],
      "payable": false,
      "stateMutability": "nonpayable",
      "type": "function"
    },
    {
      "constant": false,
      "inputs": [
        {
          "name": "account",
          "type": "address"
        }
      ],
      "name": "removeConsumer",
      "outputs": [],
      "payable": false,
      "stateMutability": "nonpayable",
      "type": "function"
    }
  ],
  "bytecode": "0x608060405234801561001057600080fd5b50336000806101000a81548173ffffffffffffffffffffffffffffffffffffffff021916908373ffffffffffffffffffffffffffffffffffffffff16021790555061047b806100606000396000f300608060405260043610610062576000357c0100000000000000000000000000000000000000000000000000000000900463ffffffff1680630e27e3df14610067578063112940f9146100aa57806361e6982d146100ed578063834ff73914610104575b600080fd5b34801561007357600080fd5b506100a8600480360381019080803573ffffffffffffffffffffffffffffffffffffffff16906020019092919050505061015f565b005b3480156100b657600080fd5b506100eb600480360381019080803573ffffffffffffffffffffffffffffffffffffffff169060200190929190505050610197565b005b3480156100f957600080fd5b5061010261022a565b005b34801561011057600080fd5b50610145600480360381019080803573ffffffffffffffffffffffffffffffffffffffff16906020019092919050505061022c565b604051808215151515815260200191505060405180910390f35b61016881610240565b7f3107ee4f902928d5d04eb3c0ce658770d1c37962ef0dd0d3461bfeaa2b91969660405160405180910390a150565b6000809054906101000a900473ffffffffffffffffffffffffffffffffffffffff1673ffffffffffffffffffffffffffffffffffffffff163373ffffffffffffffffffffffffffffffffffffffff161415156101f257600080fd5b6101fb8161024e565b7fc87542064bc1930c362cb7f85a979ab1051627291e7db73dfda0f48bca40548160405160405180910390a150565b565b600061023960018361025c565b9050919050565b61024b6001826102f0565b50565b61025960018261039f565b50565b60008073ffffffffffffffffffffffffffffffffffffffff168273ffffffffffffffffffffffffffffffffffffffff161415151561029957600080fd5b8260000160008373ffffffffffffffffffffffffffffffffffffffff1673ffffffffffffffffffffffffffffffffffffffff16815260200190815260200160002060009054906101000a900460ff16905092915050565b600073ffffffffffffffffffffffffffffffffffffffff168173ffffffffffffffffffffffffffffffffffffffff161415151561032c57600080fd5b610336828261025c565b151561034157600080fd5b60008260000160008373ffffffffffffffffffffffffffffffffffffffff1673ffffffffffffffffffffffffffffffffffffffff16815260200190815260200160002060006101000a81548160ff0219169083151502179055505050565b600073ffffffffffffffffffffffffffffffffffffffff168173ffffffffffffffffffffffffffffffffffffffff16141515156103db57600080fd5b6103e5828261025c565b1515156103f157600080fd5b60018260000160008373ffffffffffffffffffffffffffffffffffffffff1673ffffffffffffffffffffffffffffffffffffffff16815260200190815260200160002060006101000a81548160ff02191690831515021790555050505600a165627a7a723058201c369020a69662fbc09329ddfef372f3aeeb4463128d80837fd83027f4a7e74b0029",
  "source": "pragma solidity ^0.4.24;\r\n\r\n// Import the library 'Roles'\r\nimport \"./AccessControl.sol\";\r\n\r\n// Define a contract 'ConsumerRole' to manage this role - add, remove, check\r\ncontract Consumer{\r\n  address ConsumerAddress;\r\n  // Define 2 events, one for Adding, and other for Removing\r\n  event added();\r\n  event removed();\r\n  // Define a struct 'consumers' by inheriting from 'AccessControl' library, struct Role\r\n  AccessControl.Role consumers;\r\n  // In the constructor make the address that deploys this contract the 1st consumer\r\n  constructor() public {\r\n    ConsumerAddress = msg.sender;\r\n  }\r\n\r\n  // Define a modifier that checks to see if msg.sender has the appropriate role\r\n  modifier onlyConsumer() {\r\n    require(msg.sender == ConsumerAddress);\r\n    _;\r\n  }\r\n\r\n  // Define a function 'isConsumer' to check this role\r\n  function isConsumer(address account) public view returns (bool) {\r\n    return AccessControl.has(consumers, account);\r\n  }\r\n\r\n  // Define a function 'addConsumer' that adds this role\r\n  function addConsumer(address account) public onlyConsumer {\r\n    _addConsumer(account);\r\n    emit added();\r\n  }\r\n\r\n  // Define a function 'renounceConsumer' to renounce this role\r\n  function renounceConsumer() public {\r\n  }\r\n\r\n  function removeConsumer(address account) public {\r\n    _removeConsumer(account);\r\n    emit removed();\r\n  }\r\n\r\n  // Define an internal function '_addConsumer' to add this role, called by 'addConsumer'\r\n  function _addConsumer(address account) internal {\r\n    return AccessControl.add(consumers, account);\r\n  }\r\n\r\n  // Define an internal function '_removeConsumer' to remove this role, called by 'removeConsumer'\r\n  function _removeConsumer(address account) internal {\r\n    return AccessControl.remove(consumers, account);\r\n  }\r\n}\r\n",
  "sourcePath": "C:\\Users\\Sara\\Documents\\GitHub\\blockchain-nd-project8\\nd1309-Project-6b-Example-Template-master\\project-6\\contracts\\1toysaccesscontrol\\Consumer.sol",
  "compiler": {
    "name": "solc",
    "version": "0.4.25+commit.59dbf8f1.Emscripten.clang"
  },
  "schemaVersion": "2.0.2",
  "updatedAt": "2019-03-07T20:04:19.395Z"
}