{
  "contractName": "manufacturer",
  "abi": [
    {
      "inputs": [],
      "payable": false,
      "stateMutability": "nonpayable",
      "type": "constructor"
    },
    {
      "anonymous": false,
      "inputs": [],
      "name": "added",
      "type": "event"
    },
    {
      "anonymous": false,
      "inputs": [],
      "name": "removed",
      "type": "event"
    },
    {
      "constant": true,
      "inputs": [
        {
          "name": "account",
          "type": "address"
        }
      ],
      "name": "isManufacturer",
      "outputs": [
        {
          "name": "",
          "type": "bool"
        }
      ],
      "payable": false,
      "stateMutability": "view",
      "type": "function"
    },
    {
      "constant": false,
      "inputs": [
        {
          "name": "account",
          "type": "address"
        }
      ],
      "name": "addManufacturer",
      "outputs": [],
      "payable": false,
      "stateMutability": "nonpayable",
      "type": "function"
    },
    {
      "constant": false,
      "inputs": [],
      "name": "renounceManufacturer",
      "outputs": [],
      "payable": false,
      "stateMutability": "nonpayable",
      "type": "function"
    },
    {
      "constant": false,
      "inputs": [
        {
          "name": "account",
          "type": "address"
        }
      ],
      "name": "removeManufacturer",
      "outputs": [],
      "payable": false,
      "stateMutability": "nonpayable",
      "type": "function"
    }
  ],
  "bytecode": "0x608060405234801561001057600080fd5b50336000806101000a81548173ffffffffffffffffffffffffffffffffffffffff021916908373ffffffffffffffffffffffffffffffffffffffff1602179055506104d6806100606000396000f300608060405260043610610062576000357c0100000000000000000000000000000000000000000000000000000000900463ffffffff16806317d4a491146100675780635f8a5afa146100c25780636a75323f14610105578063de07f34e14610148575b600080fd5b34801561007357600080fd5b506100a8600480360381019080803573ffffffffffffffffffffffffffffffffffffffff16906020019092919050505061015f565b604051808215151515815260200191505060405180910390f35b3480156100ce57600080fd5b50610103600480360381019080803573ffffffffffffffffffffffffffffffffffffffff1690602001909291905050506101ce565b005b34801561011157600080fd5b50610146600480360381019080803573ffffffffffffffffffffffffffffffffffffffff169060200190929190505050610261565b005b34801561015457600080fd5b5061015d610299565b005b60008060009054906101000a900473ffffffffffffffffffffffffffffffffffffffff1673ffffffffffffffffffffffffffffffffffffffff163373ffffffffffffffffffffffffffffffffffffffff161415156101bc57600080fd5b6101c760018361029b565b9050919050565b6000809054906101000a900473ffffffffffffffffffffffffffffffffffffffff1673ffffffffffffffffffffffffffffffffffffffff163373ffffffffffffffffffffffffffffffffffffffff1614151561022957600080fd5b6102328161032f565b7fc87542064bc1930c362cb7f85a979ab1051627291e7db73dfda0f48bca40548160405160405180910390a150565b61026a8161033d565b7f3107ee4f902928d5d04eb3c0ce658770d1c37962ef0dd0d3461bfeaa2b91969660405160405180910390a150565b565b60008073ffffffffffffffffffffffffffffffffffffffff168273ffffffffffffffffffffffffffffffffffffffff16141515156102d857600080fd5b8260000160008373ffffffffffffffffffffffffffffffffffffffff1673ffffffffffffffffffffffffffffffffffffffff16815260200190815260200160002060009054906101000a900460ff16905092915050565b61033a60018261034b565b50565b6103486001826103fb565b50565b600073ffffffffffffffffffffffffffffffffffffffff168173ffffffffffffffffffffffffffffffffffffffff161415151561038757600080fd5b610391828261029b565b15151561039d57600080fd5b60018260000160008373ffffffffffffffffffffffffffffffffffffffff1673ffffffffffffffffffffffffffffffffffffffff16815260200190815260200160002060006101000a81548160ff0219169083151502179055505050565b600073ffffffffffffffffffffffffffffffffffffffff168173ffffffffffffffffffffffffffffffffffffffff161415151561043757600080fd5b610441828261029b565b151561044c57600080fd5b60008260000160008373ffffffffffffffffffffffffffffffffffffffff1673ffffffffffffffffffffffffffffffffffffffff16815260200190815260200160002060006101000a81548160ff02191690831515021790555050505600a165627a7a72305820e7a245c1c19f09430e725f04b7f8cb1ca5d9c60c2f29345c4c0e8f6e51407ea00029",
  "source": "pragma solidity ^0.4.24;\r\n\r\n// Import the library 'AccessControl'\r\nimport \"./AccessControl.sol\";\r\n\r\n// Define a contract 'manufacturer' to manage this role - add, remove, check\r\ncontract manufacturer {\r\n\r\n  address manufacturerAddress;\r\n  // Define 2 events, one for Adding, and other for Removing\r\n  event added();\r\n  event removed();\r\n  // Define a struct 'manufacturers' by inheriting from 'AccessControl' library, struct Role\r\n  //https://solidity.readthedocs.io/en/develop/contracts.html#libraries\r\n  AccessControl.Role manufacturers;\r\n  // In the constructor make the address that deploys this contract the 1st retailer\r\n  constructor() public {\r\n    manufacturerAddress = msg.sender;\r\n  }\r\n\r\n  // Define a modifier that checks to see if msg.sender has the appropriate role\r\n  modifier onlyManufacturer() {\r\n    require(msg.sender == manufacturerAddress);\r\n    _;\r\n  }\r\n\r\n  // Define a function 'isManufacturer' to check this role\r\n  function isManufacturer(address account) public view onlyManufacturer returns (bool) {\r\n     // if(account == manufacturerAddress){\r\n     //   return true;\r\n     // }else {\r\n     //   return false;\r\n     // }\r\n\r\n     return AccessControl.has(manufacturers, account);\r\n\r\n  }\r\n\r\n  // Define a function 'addManufacturer' that adds this role\r\n  function addManufacturer(address account) public onlyManufacturer {\r\n    _addManufacturer(account);\r\n    emit added();\r\n  }\r\n\r\n  // Define a function 'renounceManufacturer' to renounce this role\r\n  function renounceManufacturer() public {\r\n\r\n  }\r\n\r\n  function removeManufacturer(address account) public {\r\n    _removeManufacturer(account);\r\n    emit removed();\r\n  }\r\n\r\n  // Define an internal function '_addManufacturer' to add this role, called by 'addManufacturer'\r\n  function _addManufacturer(address account) internal {\r\n    return AccessControl.add(manufacturers, account);\r\n  }\r\n\r\n  // Define an internal function '_removeManufacturer' to remove this role, called by 'renounceManufacturer'\r\n  function _removeManufacturer(address account) internal {\r\n    return AccessControl.remove(manufacturers, account);\r\n  }\r\n}\r\n",
  "sourcePath": "C:\\Users\\Sara\\Documents\\GitHub\\blockchain-nd-project8\\nd1309-Project-6b-Example-Template-master\\project-6\\contracts\\1toysaccesscontrol\\manufacturer.sol",
  "compiler": {
    "name": "solc",
    "version": "0.4.25+commit.59dbf8f1.Emscripten.clang"
  },
  "schemaVersion": "2.0.2",
  "updatedAt": "2019-03-07T20:04:19.394Z"
}