{
  "contractName": "Retailer",
  "abi": [
    {
      "inputs": [],
      "payable": false,
      "stateMutability": "nonpayable",
      "type": "constructor"
    },
    {
      "anonymous": false,
      "inputs": [],
      "name": "added",
      "type": "event"
    },
    {
      "anonymous": false,
      "inputs": [],
      "name": "removed",
      "type": "event"
    },
    {
      "constant": true,
      "inputs": [
        {
          "name": "account",
          "type": "address"
        }
      ],
      "name": "isRetailer",
      "outputs": [
        {
          "name": "",
          "type": "bool"
        }
      ],
      "payable": false,
      "stateMutability": "view",
      "type": "function"
    },
    {
      "constant": false,
      "inputs": [
        {
          "name": "account",
          "type": "address"
        }
      ],
      "name": "addRetailer",
      "outputs": [],
      "payable": false,
      "stateMutability": "nonpayable",
      "type": "function"
    },
    {
      "constant": false,
      "inputs": [],
      "name": "renounceRetailer",
      "outputs": [],
      "payable": false,
      "stateMutability": "nonpayable",
      "type": "function"
    },
    {
      "constant": false,
      "inputs": [
        {
          "name": "account",
          "type": "address"
        }
      ],
      "name": "removeRetailer",
      "outputs": [],
      "payable": false,
      "stateMutability": "nonpayable",
      "type": "function"
    }
  ],
  "bytecode": "0x608060405234801561001057600080fd5b50336000806101000a81548173ffffffffffffffffffffffffffffffffffffffff021916908373ffffffffffffffffffffffffffffffffffffffff16021790555061047b806100606000396000f300608060405260043610610062576000357c0100000000000000000000000000000000000000000000000000000000900463ffffffff1680635da09b881461006757806370099ec8146100c25780638ec4f50514610105578063db0e6a2f14610148575b600080fd5b34801561007357600080fd5b506100a8600480360381019080803573ffffffffffffffffffffffffffffffffffffffff16906020019092919050505061015f565b604051808215151515815260200191505060405180910390f35b3480156100ce57600080fd5b50610103600480360381019080803573ffffffffffffffffffffffffffffffffffffffff169060200190929190505050610173565b005b34801561011157600080fd5b50610146600480360381019080803573ffffffffffffffffffffffffffffffffffffffff1690602001909291905050506101ab565b005b34801561015457600080fd5b5061015d61023e565b005b600061016c600183610240565b9050919050565b61017c816102d4565b7f3107ee4f902928d5d04eb3c0ce658770d1c37962ef0dd0d3461bfeaa2b91969660405160405180910390a150565b6000809054906101000a900473ffffffffffffffffffffffffffffffffffffffff1673ffffffffffffffffffffffffffffffffffffffff163373ffffffffffffffffffffffffffffffffffffffff1614151561020657600080fd5b61020f816102e2565b7fc87542064bc1930c362cb7f85a979ab1051627291e7db73dfda0f48bca40548160405160405180910390a150565b565b60008073ffffffffffffffffffffffffffffffffffffffff168273ffffffffffffffffffffffffffffffffffffffff161415151561027d57600080fd5b8260000160008373ffffffffffffffffffffffffffffffffffffffff1673ffffffffffffffffffffffffffffffffffffffff16815260200190815260200160002060009054906101000a900460ff16905092915050565b6102df6001826102f0565b50565b6102ed60018261039f565b50565b600073ffffffffffffffffffffffffffffffffffffffff168173ffffffffffffffffffffffffffffffffffffffff161415151561032c57600080fd5b6103368282610240565b151561034157600080fd5b60008260000160008373ffffffffffffffffffffffffffffffffffffffff1673ffffffffffffffffffffffffffffffffffffffff16815260200190815260200160002060006101000a81548160ff0219169083151502179055505050565b600073ffffffffffffffffffffffffffffffffffffffff168173ffffffffffffffffffffffffffffffffffffffff16141515156103db57600080fd5b6103e58282610240565b1515156103f157600080fd5b60018260000160008373ffffffffffffffffffffffffffffffffffffffff1673ffffffffffffffffffffffffffffffffffffffff16815260200190815260200160002060006101000a81548160ff02191690831515021790555050505600a165627a7a723058200892f7443e82256d6f73ab9f8fc53b4c87e3f75f2a29bcad829d160295aec0540029",
  "source": "pragma solidity ^0.4.24;\r\n\r\n// Import the library 'Roles'\r\nimport \"./AccessControl.sol\";\r\n\r\n// Define a contract 'RetailerRole' to manage this role - add, remove, check\r\ncontract Retailer{\r\n\r\n  address retailerAddress;\r\n\r\n  // Define 2 events, one for Adding, and other for Removing\r\n  event added();\r\n  event removed();\r\n  // Define a struct 'retailers' by inheriting from 'AccessControl' library, struct Role\r\n  AccessControl.Role retailers;\r\n  // In the constructor make the address that deploys this contract the 1st retailer\r\n  constructor() public {\r\n    retailerAddress = msg.sender;\r\n  }\r\n\r\n  // Define a modifier that checks to see if msg.sender has the appropriate role\r\n  modifier onlyRetailer() {\r\n    require(msg.sender == retailerAddress);\r\n    _;\r\n  }\r\n\r\n  // Define a function 'isRetailer' to check this role\r\n  function isRetailer(address account) public view returns (bool) {\r\n    return AccessControl.has(retailers, account);\r\n  }\r\n\r\n  // Define a function 'addRetailer' that adds this role\r\n  function addRetailer(address account) public onlyRetailer {\r\n    _addRetailer(account);\r\n    emit added();\r\n  }\r\n\r\n  // Define a function 'renounceRetailer' to renounce this role\r\n  function renounceRetailer() public {\r\n  }\r\n\r\n  function removeRetailer(address account) public {\r\n    _removeRetailer(account);\r\n    emit removed();\r\n  }\r\n\r\n  // Define an internal function '_addRetailer' to add this role, called by 'addRetailer'\r\n  function _addRetailer(address account) internal {\r\n    return AccessControl.add(retailers, account);\r\n  }\r\n\r\n  // Define an internal function '_removeRetailer' to remove this role, called by 'removeRetailer'\r\n  function _removeRetailer(address account) internal {\r\n    return AccessControl.remove(retailers, account);\r\n  }\r\n}\r\n",
  "sourcePath": "C:\\Users\\Sara\\Documents\\GitHub\\blockchain-nd-project8\\nd1309-Project-6b-Example-Template-master\\project-6\\contracts\\1toysaccesscontrol\\Retailer.sol",
  "compiler": {
    "name": "solc",
    "version": "0.4.25+commit.59dbf8f1.Emscripten.clang"
  },
  "schemaVersion": "2.0.2",
  "updatedAt": "2019-03-07T17:12:01.003Z"
}