{
  "contractName": "ToyBase",
  "abi": [
    {
      "inputs": [],
      "payable": true,
      "stateMutability": "payable",
      "type": "constructor"
    },
    {
      "anonymous": false,
      "inputs": [
        {
          "indexed": false,
          "name": "upc",
          "type": "uint256"
        }
      ],
      "name": "Designed",
      "type": "event"
    },
    {
      "anonymous": false,
      "inputs": [
        {
          "indexed": false,
          "name": "upc",
          "type": "uint256"
        }
      ],
      "name": "Approved",
      "type": "event"
    },
    {
      "anonymous": false,
      "inputs": [
        {
          "indexed": false,
          "name": "upc",
          "type": "uint256"
        }
      ],
      "name": "UnderProduction",
      "type": "event"
    },
    {
      "anonymous": false,
      "inputs": [
        {
          "indexed": false,
          "name": "upc",
          "type": "uint256"
        }
      ],
      "name": "Packed",
      "type": "event"
    },
    {
      "anonymous": false,
      "inputs": [
        {
          "indexed": false,
          "name": "upc",
          "type": "uint256"
        }
      ],
      "name": "ForSale",
      "type": "event"
    },
    {
      "anonymous": false,
      "inputs": [
        {
          "indexed": false,
          "name": "upc",
          "type": "uint256"
        }
      ],
      "name": "Sold",
      "type": "event"
    },
    {
      "anonymous": false,
      "inputs": [
        {
          "indexed": false,
          "name": "upc",
          "type": "uint256"
        }
      ],
      "name": "Shipped",
      "type": "event"
    },
    {
      "anonymous": false,
      "inputs": [
        {
          "indexed": false,
          "name": "upc",
          "type": "uint256"
        }
      ],
      "name": "Received",
      "type": "event"
    },
    {
      "anonymous": false,
      "inputs": [
        {
          "indexed": false,
          "name": "upc",
          "type": "uint256"
        }
      ],
      "name": "Purchased",
      "type": "event"
    },
    {
      "constant": false,
      "inputs": [],
      "name": "kill",
      "outputs": [],
      "payable": false,
      "stateMutability": "nonpayable",
      "type": "function"
    },
    {
      "constant": false,
      "inputs": [
        {
          "name": "_upc",
          "type": "uint256"
        },
        {
          "name": "_originManufactureID",
          "type": "address"
        },
        {
          "name": "_originManufactureName",
          "type": "string"
        },
        {
          "name": "_originManufactureInformation",
          "type": "string"
        },
        {
          "name": "_originManufactureLatitude",
          "type": "string"
        },
        {
          "name": "_originManufactureLongitude",
          "type": "string"
        },
        {
          "name": "_productNotes",
          "type": "string"
        }
      ],
      "name": "designToy",
      "outputs": [],
      "payable": false,
      "stateMutability": "nonpayable",
      "type": "function"
    },
    {
      "constant": false,
      "inputs": [
        {
          "name": "_upc",
          "type": "uint256"
        }
      ],
      "name": "prototypeToy",
      "outputs": [],
      "payable": false,
      "stateMutability": "nonpayable",
      "type": "function"
    },
    {
      "constant": false,
      "inputs": [
        {
          "name": "_upc",
          "type": "uint256"
        }
      ],
      "name": "sendToProduction",
      "outputs": [],
      "payable": false,
      "stateMutability": "nonpayable",
      "type": "function"
    },
    {
      "constant": false,
      "inputs": [
        {
          "name": "_upc",
          "type": "uint256"
        }
      ],
      "name": "packToy",
      "outputs": [],
      "payable": false,
      "stateMutability": "nonpayable",
      "type": "function"
    },
    {
      "constant": false,
      "inputs": [
        {
          "name": "_upc",
          "type": "uint256"
        },
        {
          "name": "_price",
          "type": "uint256"
        }
      ],
      "name": "sellToy",
      "outputs": [],
      "payable": false,
      "stateMutability": "nonpayable",
      "type": "function"
    },
    {
      "constant": false,
      "inputs": [
        {
          "name": "_upc",
          "type": "uint256"
        }
      ],
      "name": "buyToy",
      "outputs": [],
      "payable": true,
      "stateMutability": "payable",
      "type": "function"
    },
    {
      "constant": false,
      "inputs": [
        {
          "name": "_upc",
          "type": "uint256"
        }
      ],
      "name": "shipToy",
      "outputs": [],
      "payable": false,
      "stateMutability": "nonpayable",
      "type": "function"
    },
    {
      "constant": false,
      "inputs": [
        {
          "name": "_upc",
          "type": "uint256"
        }
      ],
      "name": "receiveToy",
      "outputs": [],
      "payable": false,
      "stateMutability": "nonpayable",
      "type": "function"
    },
    {
      "constant": false,
      "inputs": [
        {
          "name": "_upc",
          "type": "uint256"
        }
      ],
      "name": "purchaseToy",
      "outputs": [],
      "payable": true,
      "stateMutability": "payable",
      "type": "function"
    },
    {
      "constant": true,
      "inputs": [
        {
          "name": "_upc",
          "type": "uint256"
        }
      ],
      "name": "fetchToyBufferOne",
      "outputs": [
        {
          "name": "itemSKU",
          "type": "uint256"
        },
        {
          "name": "itemUPC",
          "type": "uint256"
        },
        {
          "name": "ownerID",
          "type": "address"
        },
        {
          "name": "originManufactureID",
          "type": "address"
        },
        {
          "name": "originManufactureName",
          "type": "string"
        },
        {
          "name": "originManufactureInformation",
          "type": "string"
        },
        {
          "name": "originManufactureLatitude",
          "type": "string"
        },
        {
          "name": "originManufactureLongitude",
          "type": "string"
        }
      ],
      "payable": false,
      "stateMutability": "view",
      "type": "function"
    },
    {
      "constant": true,
      "inputs": [
        {
          "name": "_upc",
          "type": "uint256"
        }
      ],
      "name": "fetchToyBufferTwo",
      "outputs": [
        {
          "name": "itemSKU",
          "type": "uint256"
        },
        {
          "name": "itemUPC",
          "type": "uint256"
        },
        {
          "name": "productID",
          "type": "uint256"
        },
        {
          "name": "productNotes",
          "type": "string"
        },
        {
          "name": "productPrice",
          "type": "uint256"
        },
        {
          "name": "itemState",
          "type": "uint8"
        },
        {
          "name": "distributorID",
          "type": "address"
        },
        {
          "name": "retailerID",
          "type": "address"
        },
        {
          "name": "consumerID",
          "type": "address"
        }
      ],
      "payable": false,
      "stateMutability": "view",
      "type": "function"
    }
  ],
  "bytecode": "0x60806040526000600560016101000a81548160ff0219169083600881111561002357fe5b0217905550336000806101000a81548173ffffffffffffffffffffffffffffffffffffffff021916908373ffffffffffffffffffffffffffffffffffffffff160217905550600160028190555060018081905550611cc5806100866000396000f3006080604052600436106100ba576000357c0100000000000000000000000000000000000000000000000000000000900463ffffffff168063364f4125146100bf5780633dd4d8a81461026a57806341c0e1b51461029757806349cee4df146102ae5780635fc7c31d146102ce5780636a50e00b146102ee57806388ad636e1461045e5780638e3e3c5f1461049557806390b37aae146104c2578063e610d1ab146104ef578063ebb767e71461051c578063fa0b034714610549575b600080fd5b3480156100cb57600080fd5b5061026860048036038101908080359060200190929190803573ffffffffffffffffffffffffffffffffffffffff169060200190929190803590602001908201803590602001908080601f0160208091040260200160405190810160405280939291908181526020018383808284378201915050505050509192919290803590602001908201803590602001908080601f0160208091040260200160405190810160405280939291908181526020018383808284378201915050505050509192919290803590602001908201803590602001908080601f0160208091040260200160405190810160405280939291908181526020018383808284378201915050505050509192919290803590602001908201803590602001908080601f0160208091040260200160405190810160405280939291908181526020018383808284378201915050505050509192919290803590602001908201803590602001908080601f01602080910402602001604051908101604052809392919081815260200183838082843782019150505050505091929192905050506107a7565b005b34801561027657600080fd5b506102956004803603810190808035906020019092919050505061096b565b005b3480156102a357600080fd5b506102ac610a84565b005b6102cc60048036038101908080359060200190929190505050610b15565b005b6102ec60048036038101908080359060200190929190505050610dcc565b005b3480156102fa57600080fd5b5061031960048036038101908080359060200190929190505050611083565b604051808a81526020018981526020018881526020018060200187815260200186600881111561034557fe5b60ff1681526020018573ffffffffffffffffffffffffffffffffffffffff1673ffffffffffffffffffffffffffffffffffffffff1681526020018473ffffffffffffffffffffffffffffffffffffffff1673ffffffffffffffffffffffffffffffffffffffff1681526020018373ffffffffffffffffffffffffffffffffffffffff1673ffffffffffffffffffffffffffffffffffffffff168152602001828103825288818151815260200191508051906020019080838360005b8381101561041b578082015181840152602081019050610400565b50505050905090810190601f1680156104485780820380516001836020036101000a031916815260200191505b509a505050505050505050505060405180910390f35b34801561046a57600080fd5b50610493600480360381019080803590602001909291908035906020019092919050505061128c565b005b3480156104a157600080fd5b506104c0600480360381019080803590602001909291905050506113c1565b005b3480156104ce57600080fd5b506104ed600480360381019080803590602001909291905050506114d9565b005b3480156104fb57600080fd5b5061051a600480360381019080803590602001909291905050506115f2565b005b34801561052857600080fd5b5061054760048036038101908080359060200190929190505050611758565b005b34801561055557600080fd5b5061057460048036038101908080359060200190929190505050611871565b604051808981526020018881526020018773ffffffffffffffffffffffffffffffffffffffff1673ffffffffffffffffffffffffffffffffffffffff1681526020018673ffffffffffffffffffffffffffffffffffffffff1673ffffffffffffffffffffffffffffffffffffffff16815260200180602001806020018060200180602001858103855289818151815260200191508051906020019080838360005b83811015610630578082015181840152602081019050610615565b50505050905090810190601f16801561065d5780820380516001836020036101000a031916815260200191505b50858103845288818151815260200191508051906020019080838360005b8381101561069657808201518184015260208101905061067b565b50505050905090810190601f1680156106c35780820380516001836020036101000a031916815260200191505b50858103835287818151815260200191508051906020019080838360005b838110156106fc5780820151818401526020810190506106e1565b50505050905090810190601f1680156107295780820380516001836020036101000a031916815260200191505b50858103825286818151815260200191508051906020019080838360005b83811015610762578082015181840152602081019050610747565b50505050905090810190601f16801561078f5780820380516001836020036101000a031916815260200191505b509c5050505050505050505050505060405180910390f35b60006003600089815260200190815260200160002090508781600001819055506000809054906101000a900473ffffffffffffffffffffffffffffffffffffffff168160010160006101000a81548173ffffffffffffffffffffffffffffffffffffffff021916908373ffffffffffffffffffffffffffffffffffffffff160217905550868160020160006101000a81548173ffffffffffffffffffffffffffffffffffffffff021916908373ffffffffffffffffffffffffffffffffffffffff16021790555085816003019080519060200190610886929190611bf4565b508481600401908051906020019061089f929190611bf4565b50838160050190805190602001906108b8929190611bf4565b50828160060190805190602001906108d1929190611bf4565b50818160080190805190602001906108ea929190611bf4565b50600081600a0160006101000a81548160ff0219169083600881111561090c57fe5b0217905550876002540181600701819055506001600254016002819055507f9f12fc7c5096077901b83d93a9ed1b966ef4ef29b125afb7f9260d15a811a82e886040518082815260200191505060405180910390a15050505050505050565b806005600881111561097957fe5b60036000838152602001908152602001600020600a0160009054906101000a900460ff1660088111156109a857fe5b1415156109b457600080fd5b6000809054906101000a900473ffffffffffffffffffffffffffffffffffffffff168073ffffffffffffffffffffffffffffffffffffffff163373ffffffffffffffffffffffffffffffffffffffff16141515610a1057600080fd5b600660036000858152602001908152602001600020600a0160006101000a81548160ff02191690836008811115610a4357fe5b02179055507ff00b9a5725b80c54016f42114f6ed7792d22eecb116011c4afac29c57bef6c95836040518082815260200191505060405180910390a1505050565b6000809054906101000a900473ffffffffffffffffffffffffffffffffffffffff1673ffffffffffffffffffffffffffffffffffffffff163373ffffffffffffffffffffffffffffffffffffffff161415610b13576000809054906101000a900473ffffffffffffffffffffffffffffffffffffffff1673ffffffffffffffffffffffffffffffffffffffff16ff5b565b6000808260076008811115610b2657fe5b60036000838152602001908152602001600020600a0160009054906101000a900460ff166008811115610b5557fe5b141515610b6157600080fd5b34803410151515610b7157600080fd5b8460008060036000848152602001908152602001600020600901549150813403905060036000848152602001908152602001600020600c0160009054906101000a900473ffffffffffffffffffffffffffffffffffffffff1673ffffffffffffffffffffffffffffffffffffffff166108fc829081150290604051600060405180830381858888f19350505050158015610c0f573d6000803e3d6000fd5b5033600360008a815260200190815260200160002060010160006101000a81548173ffffffffffffffffffffffffffffffffffffffff021916908373ffffffffffffffffffffffffffffffffffffffff16021790555033600360008a8152602001908152602001600020600b0160006101000a81548173ffffffffffffffffffffffffffffffffffffffff021916908373ffffffffffffffffffffffffffffffffffffffff1602179055506007600360008a8152602001908152602001600020600a0160006101000a81548160ff02191690836008811115610ced57fe5b02179055506003600089815260200190815260200160002060090154965060036000898152602001908152602001600020600b0160009054906101000a900473ffffffffffffffffffffffffffffffffffffffff1695508573ffffffffffffffffffffffffffffffffffffffff166108fc889081150290604051600060405180830381858888f19350505050158015610d8a573d6000803e3d6000fd5b507f653d56639fee6b566a5c804764e9689de38645f0b733df89a36a1b7b42173dd8886040518082815260200191505060405180910390a15050505050505050565b6000808260046008811115610ddd57fe5b60036000838152602001908152602001600020600a0160009054906101000a900460ff166008811115610e0c57fe5b141515610e1857600080fd5b34803410151515610e2857600080fd5b8460008060036000848152602001908152602001600020600901549150813403905060036000848152602001908152602001600020600c0160009054906101000a900473ffffffffffffffffffffffffffffffffffffffff1673ffffffffffffffffffffffffffffffffffffffff166108fc829081150290604051600060405180830381858888f19350505050158015610ec6573d6000803e3d6000fd5b5033600360008a815260200190815260200160002060010160006101000a81548173ffffffffffffffffffffffffffffffffffffffff021916908373ffffffffffffffffffffffffffffffffffffffff16021790555033600360008a8152602001908152602001600020600a0160016101000a81548173ffffffffffffffffffffffffffffffffffffffff021916908373ffffffffffffffffffffffffffffffffffffffff1602179055506005600360008a8152602001908152602001600020600a0160006101000a81548160ff02191690836008811115610fa457fe5b0217905550600360008981526020019081526020016000206009015496506003600089815260200190815260200160002060020160009054906101000a900473ffffffffffffffffffffffffffffffffffffffff1695508573ffffffffffffffffffffffffffffffffffffffff166108fc889081150290604051600060405180830381858888f19350505050158015611041573d6000803e3d6000fd5b507f92f64ca637d023f354075a4be751b169c1a8a9ccb6d33cdd0cb3520543995727886040518082815260200191505060405180910390a15050505050505050565b6000806000606060008060008060006002549850600360008b8152602001908152602001600020600001549750600360008b8152602001908152602001600020600701549650600360008b81526020019081526020016000206008018054600181600116156101000203166002900480601f0160208091040260200160405190810160405280929190818152602001828054600181600116156101000203166002900480156111735780601f1061114857610100808354040283529160200191611173565b820191906000526020600020905b81548152906001019060200180831161115657829003601f168201915b50505050509550600360008b8152602001908152602001600020600901549450600360008b8152602001908152602001600020600a0160009054906101000a900460ff169350600360008b8152602001908152602001600020600a0160019054906101000a900473ffffffffffffffffffffffffffffffffffffffff169250600360008b8152602001908152602001600020600b0160009054906101000a900473ffffffffffffffffffffffffffffffffffffffff169150600360008b8152602001908152602001600020600c0160009054906101000a900473ffffffffffffffffffffffffffffffffffffffff1690508888888888888888889850985098509850985098509850985098509193959799909294969850565b816003600881111561129a57fe5b60036000838152602001908152602001600020600a0160009054906101000a900460ff1660088111156112c957fe5b1415156112d557600080fd5b6000809054906101000a900473ffffffffffffffffffffffffffffffffffffffff168073ffffffffffffffffffffffffffffffffffffffff163373ffffffffffffffffffffffffffffffffffffffff1614151561133157600080fd5b600460036000868152602001908152602001600020600a0160006101000a81548160ff0219169083600881111561136457fe5b02179055508260036000868152602001908152602001600020600901819055507fa96ae0fc3224ebd79eebfe54bd130cc9cb94416cddd1f2386115e00b72532468846040518082815260200191505060405180910390a150505050565b80600260088111156113cf57fe5b60036000838152602001908152602001600020600a0160009054906101000a900460ff1660088111156113fe57fe5b14151561140a57600080fd5b6000809054906101000a900473ffffffffffffffffffffffffffffffffffffffff168073ffffffffffffffffffffffffffffffffffffffff163373ffffffffffffffffffffffffffffffffffffffff1614151561146657600080fd5b6003806000858152602001908152602001600020600a0160006101000a81548160ff0219169083600881111561149857fe5b02179055507f9b3b66e2380b690bae22c73ef1428fb0c91e72fe14a4b6defa13035214187aff836040518082815260200191505060405180910390a1505050565b80600160088111156114e757fe5b60036000838152602001908152602001600020600a0160009054906101000a900460ff16600881111561151657fe5b14151561152257600080fd5b6000809054906101000a900473ffffffffffffffffffffffffffffffffffffffff168073ffffffffffffffffffffffffffffffffffffffff163373ffffffffffffffffffffffffffffffffffffffff1614151561157e57600080fd5b600260036000858152602001908152602001600020600a0160006101000a81548160ff021916908360088111156115b157fe5b02179055507f6f65151475f521b94c5edf57ac4495ba6eaa8b44e961d20aeb48e0fec3213658836040518082815260200191505060405180910390a1505050565b806006600881111561160057fe5b60036000838152602001908152602001600020600a0160009054906101000a900460ff16600881111561162f57fe5b14151561163b57600080fd5b3360036000848152602001908152602001600020600b0160006101000a81548173ffffffffffffffffffffffffffffffffffffffff021916908373ffffffffffffffffffffffffffffffffffffffff160217905550336003600084815260200190815260200160002060010160006101000a81548173ffffffffffffffffffffffffffffffffffffffff021916908373ffffffffffffffffffffffffffffffffffffffff160217905550600760036000848152602001908152602001600020600a0160006101000a81548160ff0219169083600881111561171857fe5b02179055507fa8142743f8f70a4c26f3691cf4ed59718381fb2f18070ec52be1f1022d855557826040518082815260200191505060405180910390a15050565b806000600881111561176657fe5b60036000838152602001908152602001600020600a0160009054906101000a900460ff16600881111561179557fe5b1415156117a157600080fd5b6000809054906101000a900473ffffffffffffffffffffffffffffffffffffffff168073ffffffffffffffffffffffffffffffffffffffff163373ffffffffffffffffffffffffffffffffffffffff161415156117fd57600080fd5b600160036000858152602001908152602001600020600a0160006101000a81548160ff0219169083600881111561183057fe5b02179055507f3ad93af63cb7967b23e4fb500b7d7d28b07516325dcf341f88bebf959d82c1cb836040518082815260200191505060405180910390a1505050565b6000806000806060806060806002549750600360008a8152602001908152602001600020600001549650600360008a815260200190815260200160002060010160009054906101000a900473ffffffffffffffffffffffffffffffffffffffff169550600360008a815260200190815260200160002060020160009054906101000a900473ffffffffffffffffffffffffffffffffffffffff169450600360008a81526020019081526020016000206003018054600181600116156101000203166002900480601f0160208091040260200160405190810160405280929190818152602001828054600181600116156101000203166002900480156119b75780601f1061198c576101008083540402835291602001916119b7565b820191906000526020600020905b81548152906001019060200180831161199a57829003601f168201915b50505050509350600360008a81526020019081526020016000206004018054600181600116156101000203166002900480601f016020809104026020016040519081016040528092919081815260200182805460018160011615610100020316600290048015611a685780601f10611a3d57610100808354040283529160200191611a68565b820191906000526020600020905b815481529060010190602001808311611a4b57829003601f168201915b50505050509250600360008a81526020019081526020016000206005018054600181600116156101000203166002900480601f016020809104026020016040519081016040528092919081815260200182805460018160011615610100020316600290048015611b195780601f10611aee57610100808354040283529160200191611b19565b820191906000526020600020905b815481529060010190602001808311611afc57829003601f168201915b50505050509150600360008a81526020019081526020016000206006018054600181600116156101000203166002900480601f016020809104026020016040519081016040528092919081815260200182805460018160011615610100020316600290048015611bca5780601f10611b9f57610100808354040283529160200191611bca565b820191906000526020600020905b815481529060010190602001808311611bad57829003601f168201915b50505050509050878787878787878797509750975097509750975097509750919395975091939597565b828054600181600116156101000203166002900490600052602060002090601f016020900481019282601f10611c3557805160ff1916838001178555611c63565b82800160010185558215611c63579182015b82811115611c62578251825591602001919060010190611c47565b5b509050611c709190611c74565b5090565b611c9691905b80821115611c92576000816000905550600101611c7a565b5090565b905600a165627a7a7230582029cf92adb2a01247faa57bc8599fe4d533439a5ee74c4cca8ac633ef0fae82480029",
  "source": "pragma solidity ^0.4.24;\r\n\r\n//import \"./AccessControl.sol\";\r\n// Define a contract 'ToyBase'\r\ncontract ToyBase {\r\n\r\n  // Define 'owner'\r\n  address owner;\r\n\r\n  // Define a variable called 'upc' for Universal Product Code (UPC)\r\n  uint  upc;\r\n\r\n  // Define a variable called 'sku' for Stock Keeping Unit (SKU)\r\n  uint  sku;\r\n\r\n  // Define a public mapping 'toys' that maps the UPC to an Toy.\r\n  mapping (uint => Toy) toys;\r\n\r\n  // Define a public mapping 'toysHistory' that maps the UPC to an array of TxHash,\r\n  // that track its journey through the supply chain -- to be sent from DApp.\r\n  mapping (uint => string[]) toysHistory;\r\n\r\n  // Define enum 'State' with the following values:\r\n  enum State\r\n  {\r\n    Designed,  // 0\r\n    Approved,  // 1\r\n    UnderProduction, //2\r\n    Packed,     // 3\r\n    ForSale,    // 4\r\n    Sold,       // 5\r\n    Shipped,    // 6\r\n    Received,   // 7\r\n    Purchased   // 8\r\n    }\r\n\r\n  State consku;  // Stock Keeping Unit (SKU)\r\n  State defaultState = State.Designed;\r\n\r\n  // Define a struct 'Toy' with the following fields:\r\n  struct Toy {\r\n    uint     upc; // Universal Product Code (UPC), generated by the manufacturer, goes on the package, can be verified by the Consumer\r\n    address ownerID;  // Metamask-Ethereum address of the current owner as the product moves through 8 stages\r\n    address originManufactureID; // Metamask-Ethereum address of the Farmer\r\n    string  originManufactureName; // Farmer Name\r\n    string  originManufactureInformation;  // Farmer Information\r\n    string  originManufactureLatitude; // Farm Latitude\r\n    string  originManufactureLongitude;  // Farm Longitude\r\n    uint    productID;  // Product ID potentially a combination of upc + sku\r\n    string  productNotes; // Product Notes\r\n    uint    productPrice; // Product Price\r\n    State   itemState;  // Product State as represented in the enum above\r\n    address distributorID;  // Metamask-Ethereum address of the Distributor\r\n    address retailerID; // Metamask-Ethereum address of the Retailer\r\n    address consumerID; // Metamask-Ethereum address of the Consumer\r\n  }\r\n\r\n  // Define (9) events with the same 9 state values and accept 'upc' as input argument\r\n  event Designed(uint upc);\r\n  event Approved(uint upc);\r\n  event UnderProduction(uint upc);\r\n  event Packed(uint upc);\r\n  event ForSale(uint upc);\r\n  event Sold(uint upc);\r\n  event Shipped(uint upc);\r\n  event Received(uint upc);\r\n  event Purchased(uint upc);\r\n\r\n  // Define a modifer that checks to see if msg.sender == owner of the contract\r\n  modifier onlyOwner() {\r\n    require(msg.sender == owner);\r\n    _;\r\n  }\r\n\r\n  // Define a modifer that verifies the Caller\r\n  modifier verifyCaller (address _address) {\r\n    require(msg.sender == _address);\r\n    _;\r\n  }\r\n\r\n  // Define a modifier that checks if the paid amount is sufficient to cover the price\r\n  modifier paidEnough(uint _price) {\r\n    require(msg.value >= _price);\r\n    _;\r\n  }\r\n\r\n  // Define a modifier that checks the price and refunds the remaining balance\r\n  modifier checkValue(uint _upc) {\r\n    \r\n    uint _price = toys[_upc].productPrice;\r\n    uint amountToReturn = msg.value - _price;\r\n    toys[_upc].consumerID.transfer(amountToReturn);\r\n    _;\r\n  }\r\n\r\n  // Define a modifier that checks if an item.state of a upc is Designed\r\n  modifier designed(uint _upc) {\r\n    require(toys[_upc].itemState == State.Designed);\r\n    _;\r\n  }\r\n\r\n  // Define a modifier that checks if an item.state of a upc is approved\r\n  modifier approved(uint _upc) {\r\n    require(toys[_upc].itemState == State.Approved);\r\n    _;\r\n  }\r\n\r\n  // Define a modifier that checks if an item.state of a upc is UnderProduction\r\n  modifier underProduction(uint _upc) {\r\n    require(toys[_upc].itemState == State.UnderProduction);\r\n    _;\r\n  }\r\n\r\n  // Define a modifier that checks if an item.state of a upc is Packed\r\n  modifier packed(uint _upc) {\r\n    require(toys[_upc].itemState == State.Packed);\r\n    _;\r\n  }\r\n\r\n  // Define a modifier that checks if an item.state of a upc is ForSale\r\n  modifier forSale(uint _upc) {\r\n    require(toys[_upc].itemState == State.ForSale);\r\n    _;\r\n  }\r\n\r\n  // Define a modifier that checks if an item.state of a upc is Sold\r\n  modifier sold(uint _upc) {\r\n    require(toys[_upc].itemState == State.Sold);\r\n    _;\r\n  }\r\n\r\n  // Define a modifier that checks if an item.state of a upc is Shipped\r\n  modifier shipped(uint _upc) {\r\n    require(toys[_upc].itemState == State.Shipped);\r\n    _;\r\n  }\r\n\r\n  // Define a modifier that checks if an item.state of a upc is Received\r\n  modifier received(uint _upc) {\r\n    require(toys[_upc].itemState == State.Received);\r\n    _;\r\n  }\r\n\r\n  // Define a modifier that checks if an item.state of a upc is Purchased\r\n  modifier purchased(uint _upc) {\r\n    require(toys[_upc].itemState == State.Purchased);\r\n    _;\r\n  }\r\n\r\n  // In the constructor set 'owner' to the address that instantiated the contract\r\n  // and set 'sku' to 1\r\n  // and set 'upc' to 1\r\n  constructor() public payable {\r\n    owner = msg.sender;\r\n    sku = 1;\r\n    upc = 1;\r\n    //toys[upc].ownerID = owner;\r\n  }\r\n\r\n  // Define a function 'kill' if required\r\n  function kill() public {\r\n    if (msg.sender == owner) {\r\n      selfdestruct(owner);\r\n    }\r\n  }\r\n\r\n  // Define a function 'designToy' that allows a manufacturer to mark an item 'designToy'\r\n  function designToy(uint _upc, address _originManufactureID, string _originManufactureName, string _originManufactureInformation,\r\n     string  _originManufactureLatitude, string  _originManufactureLongitude, string  _productNotes) public\r\n  {\r\n    // Add the new item as part of toys manufactured\r\n    \r\n    Toy storage newitem = toys[_upc]; //adding a new item to the mapping\r\n    newitem.upc = _upc;\r\n    newitem.ownerID = owner;\r\n    newitem.originManufactureID = _originManufactureID;\r\n    newitem.originManufactureName = _originManufactureName;\r\n    newitem.originManufactureInformation = _originManufactureInformation;\r\n    newitem.originManufactureLatitude = _originManufactureLatitude;\r\n    newitem.originManufactureLongitude = _originManufactureLongitude;\r\n    newitem.productNotes= _productNotes;\r\n    newitem.itemState = State.Designed;\r\n    newitem.productID = sku+_upc;\r\n    //newitem.productPrice ;\r\n    // Increment sku\r\n    sku = sku + 1;\r\n    // Emit the appropriate event\r\n    emit Designed(_upc);\r\n  }\r\n\r\n  // Define a function 'prototypeToy' that allows a manufacturer to mark an item 'Approved'\r\n  function prototypeToy(uint _upc) public\r\n  // Call modifier to check if upc has passed previous supply chain stage\r\n  designed(_upc)\r\n  // Call modifier to verify caller of this function\r\n  verifyCaller(owner)\r\n  {\r\n    // Update the appropriate fields\r\n    toys[_upc].itemState = State.Approved;\r\n    // Emit the appropriate event\r\n    emit Approved(_upc);\r\n  }\r\n  // Define a function 'sendToProduction' that allows a manufacturer to mark an item 'underProduction'\r\n  function sendToProduction(uint _upc) public\r\n  // Call modifier to check if upc has passed previous supply chain stage\r\n  approved(_upc)\r\n  // Call modifier to verify caller of this function\r\n  verifyCaller(owner)\r\n  {\r\n    // Update the appropriate fields\r\n    toys[_upc].itemState = State.UnderProduction;\r\n    // Emit the appropriate event\r\n    emit UnderProduction(_upc);\r\n  }\r\n  // Define a function 'packToy' that allows a manufacturer to mark an item 'Packed'\r\n  function packToy(uint _upc) public\r\n  // Call modifier to check if upc has passed previous supply chain stage\r\n  underProduction(_upc)\r\n  // Call modifier to verify caller of this function\r\n  verifyCaller(owner)\r\n  {\r\n    // Update the appropriate fields\r\n    toys[_upc].itemState = State.Packed;\r\n    // Emit the appropriate event\r\n \temit Packed(_upc);\r\n  }\r\n\r\n  // Define a function 'sellToy' that allows a manufacturer to mark an item 'ForSale'\r\n  function sellToy(uint _upc, uint _price) public\r\n  // Call modifier to check if upc has passed previous supply chain stage\r\n  packed(_upc)\r\n  // Call modifier to verify caller of this function\r\n  verifyCaller(owner)\r\n  {\r\n    // Update the appropriate fields\r\n    toys[_upc].itemState = State.ForSale;\r\n    toys[_upc].productPrice =  _price;\r\n    // Emit the appropriate event\r\n    emit ForSale(_upc);\r\n  }\r\n\r\n  // Define a function 'buyToy' that allows the disributor to mark an item 'Sold'\r\n  // Use the above defined modifiers to check if the item is available for sale, if the buyer has paid enough,\r\n  // and any excess ether sent is refunded back to the buyer\r\n  function buyToy(uint _upc) public payable\r\n    // Call modifier to check if upc has passed previous supply chain stage  \r\n    forSale(_upc)\r\n    // Call modifer to check if buyer has paid enough\r\n    paidEnough(msg.value)\r\n    // Call modifer to send any excess ether back to buyer\r\n    checkValue(_upc)\r\n    {\r\n\r\n    // Update the appropriate fields - ownerID, distributorID, itemState\r\n    toys[_upc].ownerID = msg.sender;\r\n    toys[_upc].distributorID = msg.sender;\r\n    toys[_upc].itemState = State.Sold;\r\n    // Transfer money to manufacturer\r\n\r\n    uint256 toyCost =toys[_upc].productPrice;\r\n    address manufactureAdress = toys[_upc].originManufactureID;\r\n\r\n    manufactureAdress.transfer(toyCost);\r\n    // emit the appropriate event\r\n    emit Sold(_upc);\r\n\r\n  }\r\n\r\n  // Define a function 'shipToy' that allows the distributor to mark an item 'Shipped'\r\n  // Use the above modifers to check if the item is sold\r\n  function shipToy(uint _upc) public\r\n    // Call modifier to check if upc has passed previous supply chain stage\r\n    sold(_upc)\r\n    // Call modifier to verify caller of this function\r\n    verifyCaller(owner)\r\n    {\r\n    // Update the appropriate fields\r\n    toys[_upc].itemState = State.Shipped;\r\n    // Emit the appropriate event\r\n    emit Shipped(_upc);\r\n  }\r\n\r\n  // Define a function 'receiveToy' that allows the retailer to mark an item 'Received'\r\n  // Use the above modifiers to check if the item is shipped\r\n  function receiveToy(uint _upc) public\r\n    // Call modifier to check if upc has passed previous supply chain stage\r\n    shipped(_upc)\r\n    // Access Control List enforced by calling Smart Contract / DApp\r\n\r\n    {\r\n    // Update the appropriate fields - ownerID, retailerID, itemState\r\n    \r\n    toys[_upc].retailerID = msg.sender;\r\n    toys[_upc].ownerID = msg.sender;\r\n    toys[_upc].itemState = State.Received;\r\n    // Emit the appropriate event\r\n    emit Received(_upc);\r\n\r\n  }\r\n\r\n  // Define a function 'purchaseToy' that allows the consumer to mark an item 'Purchased'\r\n  // Use the above modifiers to check if the item is received\r\n\r\n  function purchaseToy(uint _upc) public payable\r\n    // Call modifier to check if upc has passed previous supply chain stage\r\n    //designed(_upc) approved(_upc) UnderProduction(_upc) packed(_upc)  forSale(_upc) sold(_upc) shipped(_upc)  \r\n    received(_upc)\r\n    paidEnough(msg.value)\r\n\tcheckValue(_upc)\r\n    // Access Control List enforced by calling Smart Contract / DApp\r\n    {\r\n    // Update the appropriate fields - ownerID, consumerID, itemState\r\n    toys[_upc].ownerID = msg.sender;\r\n    toys[_upc].retailerID = msg.sender;\r\n    toys[_upc].itemState = State.Received;\r\n\r\n    // Transfer money to manufacturer\r\n\r\n    uint256 toyCost =toys[_upc].productPrice;\r\n    address retailerAdress = toys[_upc].retailerID;\r\n    //require(msg.value >toyCost);\r\n\r\n    retailerAdress.transfer(toyCost);\r\n\r\n    // Emit the appropriate event\r\n    emit Purchased(_upc);\r\n  }\r\n\r\n  // Define a function 'fetchToyBufferOne' that fetches the data\r\n  function fetchToyBufferOne(uint _upc) public view returns\r\n  (\r\n  uint    itemSKU,\r\n  uint    itemUPC,\r\n  address ownerID,\r\n  address originManufactureID,\r\n  string  originManufactureName,\r\n  string  originManufactureInformation,\r\n  string  originManufactureLatitude,\r\n  string  originManufactureLongitude\r\n  )\r\n  {\r\n  // Assign values to the 8 parameters\r\n\r\n  itemSKU = sku;\r\n  itemUPC = toys[_upc].upc;\r\n  ownerID = toys[_upc].ownerID;\r\n  originManufactureID = toys[_upc].originManufactureID;\r\n  originManufactureName = toys[_upc].originManufactureName;\r\n  originManufactureInformation = toys[_upc].originManufactureInformation;\r\n  originManufactureLatitude = toys[_upc].originManufactureLatitude;\r\n  originManufactureLongitude = toys[_upc].originManufactureLongitude;\r\n\r\n  return\r\n  (\r\n  itemSKU,\r\n  itemUPC,\r\n  ownerID,\r\n  originManufactureID,\r\n  originManufactureName,\r\n  originManufactureInformation,\r\n  originManufactureLatitude,\r\n  originManufactureLongitude\r\n  );\r\n  }\r\n\r\n  // Define a function 'fetchToyBufferTwo' that fetches the data\r\n  function fetchToyBufferTwo(uint _upc) public view returns\r\n  (\r\n  uint    itemSKU,\r\n  uint    itemUPC,\r\n  uint    productID,\r\n  string  productNotes,\r\n  uint    productPrice,\r\n  State    itemState,\r\n  address distributorID,\r\n  address retailerID,\r\n  address consumerID\r\n  )\r\n  {\r\n    // Assign values to the 9 parameters\r\n    itemSKU = sku;\r\n    itemUPC = toys[_upc].upc;\r\n    productID = toys[_upc].productID;\r\n    productNotes = toys[_upc].productNotes;\r\n    productPrice = toys[_upc].productPrice;\r\n    itemState = toys[_upc].itemState;\r\n    distributorID = toys[_upc].distributorID;\r\n    retailerID = toys[_upc].retailerID;\r\n    consumerID = toys[_upc].consumerID;\r\n\r\n  return\r\n  (\r\n  itemSKU,\r\n  itemUPC,\r\n  productID,\r\n  productNotes,\r\n  productPrice,\r\n  itemState,\r\n  distributorID,\r\n  retailerID,\r\n  consumerID\r\n  );\r\n  }\r\n}\r\n",
  "sourcePath": "C:\\Users\\Sara\\Documents\\GitHub\\blockchain-nd-project8\\nd1309-Project-6b-Example-Template-master\\project-6\\contracts\\2toysbase\\ToyBase.sol",
  "compiler": {
    "name": "solc",
    "version": "0.4.25+commit.59dbf8f1.Emscripten.clang"
  },
  "schemaVersion": "2.0.2",
  "updatedAt": "2019-03-06T18:29:15.095Z"
}